{
  "contractName": "Project",
  "abi": [
    {
      "inputs": [
        {
          "internalType": "address payable",
          "name": "projectStarter",
          "type": "address"
        },
        {
          "internalType": "string",
          "name": "projectTitle",
          "type": "string"
        },
        {
          "internalType": "string",
          "name": "projectDesc",
          "type": "string"
        },
        {
          "internalType": "uint256",
          "name": "fundRaisingDeadline",
          "type": "uint256"
        },
        {
          "internalType": "uint256",
          "name": "goalAmount",
          "type": "uint256"
        }
      ],
      "stateMutability": "payable",
      "type": "constructor",
      "payable": true
    },
    {
      "anonymous": false,
      "inputs": [
        {
          "indexed": false,
          "internalType": "address",
          "name": "recipient",
          "type": "address"
        }
      ],
      "name": "CreatorPaid",
      "type": "event"
    },
    {
      "anonymous": false,
      "inputs": [
        {
          "indexed": false,
          "internalType": "address",
          "name": "contributor",
          "type": "address"
        },
        {
          "indexed": false,
          "internalType": "uint256",
          "name": "amount",
          "type": "uint256"
        },
        {
          "indexed": false,
          "internalType": "uint256",
          "name": "currentTotal",
          "type": "uint256"
        }
      ],
      "name": "FundingReceived",
      "type": "event"
    },
    {
      "inputs": [],
      "name": "amountGoal",
      "outputs": [
        {
          "internalType": "uint256",
          "name": "",
          "type": "uint256"
        }
      ],
      "stateMutability": "view",
      "type": "function",
      "constant": true
    },
    {
      "inputs": [],
      "name": "completeAt",
      "outputs": [
        {
          "internalType": "uint256",
          "name": "",
          "type": "uint256"
        }
      ],
      "stateMutability": "view",
      "type": "function",
      "constant": true
    },
    {
      "inputs": [
        {
          "internalType": "address",
          "name": "",
          "type": "address"
        }
      ],
      "name": "contributions",
      "outputs": [
        {
          "internalType": "uint256",
          "name": "",
          "type": "uint256"
        }
      ],
      "stateMutability": "view",
      "type": "function",
      "constant": true
    },
    {
      "inputs": [],
      "name": "creator",
      "outputs": [
        {
          "internalType": "address payable",
          "name": "",
          "type": "address"
        }
      ],
      "stateMutability": "view",
      "type": "function",
      "constant": true
    },
    {
      "inputs": [],
      "name": "currentBalance",
      "outputs": [
        {
          "internalType": "uint256",
          "name": "",
          "type": "uint256"
        }
      ],
      "stateMutability": "view",
      "type": "function",
      "constant": true
    },
    {
      "inputs": [],
      "name": "description",
      "outputs": [
        {
          "internalType": "string",
          "name": "",
          "type": "string"
        }
      ],
      "stateMutability": "view",
      "type": "function",
      "constant": true
    },
    {
      "inputs": [],
      "name": "raiseBy",
      "outputs": [
        {
          "internalType": "uint256",
          "name": "",
          "type": "uint256"
        }
      ],
      "stateMutability": "view",
      "type": "function",
      "constant": true
    },
    {
      "inputs": [],
      "name": "state",
      "outputs": [
        {
          "internalType": "enum Project.State",
          "name": "",
          "type": "uint8"
        }
      ],
      "stateMutability": "view",
      "type": "function",
      "constant": true
    },
    {
      "inputs": [],
      "name": "title",
      "outputs": [
        {
          "internalType": "string",
          "name": "",
          "type": "string"
        }
      ],
      "stateMutability": "view",
      "type": "function",
      "constant": true
    },
    {
      "inputs": [],
      "name": "contribute",
      "outputs": [],
      "stateMutability": "payable",
      "type": "function",
      "payable": true
    },
    {
      "inputs": [],
      "name": "checkIfFundingCompleteOrExpired",
      "outputs": [],
      "stateMutability": "nonpayable",
      "type": "function"
    },
    {
      "inputs": [],
      "name": "getRefund",
      "outputs": [
        {
          "internalType": "bool",
          "name": "",
          "type": "bool"
        }
      ],
      "stateMutability": "payable",
      "type": "function",
      "payable": true
    },
    {
      "inputs": [],
      "name": "getDetails",
      "outputs": [
        {
          "internalType": "address payable",
          "name": "projectStarter",
          "type": "address"
        },
        {
          "internalType": "string",
          "name": "projectTitle",
          "type": "string"
        },
        {
          "internalType": "string",
          "name": "projectDesc",
          "type": "string"
        },
        {
          "internalType": "uint256",
          "name": "deadline",
          "type": "uint256"
        },
        {
          "internalType": "enum Project.State",
          "name": "currentState",
          "type": "uint8"
        },
        {
          "internalType": "uint256",
          "name": "currentAmount",
          "type": "uint256"
        },
        {
          "internalType": "uint256",
          "name": "goalAmount",
          "type": "uint256"
        }
      ],
      "stateMutability": "view",
      "type": "function",
      "constant": true
    }
  ],
  "bytecode": "0x60806040526000600760006101000a81548160ff021916908360028111156200002d576200002c62000452565b5b0217905550604051620015143803806200151483398181016040528101906200005791906200024d565b846000806101000a81548173ffffffffffffffffffffffffffffffffffffffff021916908373ffffffffffffffffffffffffffffffffffffffff1602179055508360059080519060200190620000af929190620000f1565b508260069080519060200190620000c8929190620000f1565b508060018190555081600481905550426002819055506000600381905550505050505062000538565b828054620000ff90620003e6565b90600052602060002090601f0160209004810192826200012357600085556200016f565b82601f106200013e57805160ff19168380011785556200016f565b828001600101855582156200016f579182015b828111156200016e57825182559160200191906001019062000151565b5b5090506200017e919062000182565b5090565b5b808211156200019d57600081600090555060010162000183565b5090565b6000620001b8620001b2846200033c565b62000313565b905082815260208101848484011115620001d757620001d6620004e4565b5b620001e4848285620003b0565b509392505050565b600081519050620001fd8162000504565b92915050565b600082601f8301126200021b576200021a620004df565b5b81516200022d848260208601620001a1565b91505092915050565b60008151905062000247816200051e565b92915050565b600080600080600060a086880312156200026c576200026b620004ee565b5b60006200027c88828901620001ec565b955050602086015167ffffffffffffffff811115620002a0576200029f620004e9565b5b620002ae8882890162000203565b945050604086015167ffffffffffffffff811115620002d257620002d1620004e9565b5b620002e08882890162000203565b9350506060620002f38882890162000236565b9250506080620003068882890162000236565b9150509295509295909350565b60006200031f62000332565b90506200032d82826200041c565b919050565b6000604051905090565b600067ffffffffffffffff8211156200035a5762000359620004b0565b5b6200036582620004f3565b9050602081019050919050565b60006200037f8262000386565b9050919050565b600073ffffffffffffffffffffffffffffffffffffffff82169050919050565b6000819050919050565b60005b83811015620003d0578082015181840152602081019050620003b3565b83811115620003e0576000848401525b50505050565b60006002820490506001821680620003ff57607f821691505b6020821081141562000416576200041562000481565b5b50919050565b6200042782620004f3565b810181811067ffffffffffffffff82111715620004495762000448620004b0565b5b80604052505050565b7f4e487b7100000000000000000000000000000000000000000000000000000000600052602160045260246000fd5b7f4e487b7100000000000000000000000000000000000000000000000000000000600052602260045260246000fd5b7f4e487b7100000000000000000000000000000000000000000000000000000000600052604160045260246000fd5b600080fd5b600080fd5b600080fd5b600080fd5b6000601f19601f8301169050919050565b6200050f8162000372565b81146200051b57600080fd5b50565b6200052981620003a6565b81146200053557600080fd5b50565b610fcc80620005486000396000f3fe6080604052600436106100c25760003560e01c80637284e4161161007f578063c19d93fb11610059578063c19d93fb1461023b578063ce845d1d14610266578063d7bb99ba14610291578063fbbf93a01461029b576100c2565b80637284e416146101db57806386f3258614610206578063b2d5ae441461021d576100c2565b806302d05d3f146100c75780630785001c146100f257806337f944cc1461011d57806342e94c90146101485780634a79d50c146101855780634c4cea5a146101b0575b600080fd5b3480156100d357600080fd5b506100dc6102cc565b6040516100e99190610bc6565b60405180910390f35b3480156100fe57600080fd5b506101076102f0565b6040516101149190610ced565b60405180910390f35b34801561012957600080fd5b506101326102f6565b60405161013f9190610ced565b60405180910390f35b34801561015457600080fd5b5061016f600480360381019061016a9190610aeb565b6102fc565b60405161017c9190610ced565b60405180910390f35b34801561019157600080fd5b5061019a610314565b6040516101a79190610ccb565b60405180910390f35b3480156101bc57600080fd5b506101c56103a2565b6040516101d29190610ced565b60405180910390f35b3480156101e757600080fd5b506101f06103a8565b6040516101fd9190610ccb565b60405180910390f35b34801561021257600080fd5b5061021b610436565b005b6102256104ba565b6040516102329190610c95565b60405180910390f35b34801561024757600080fd5b5061025061067e565b60405161025d9190610cb0565b60405180910390f35b34801561027257600080fd5b5061027b610691565b6040516102889190610ced565b60405180910390f35b610299610697565b005b3480156102a757600080fd5b506102b061081b565b6040516102c39796959493929190610be1565b60405180910390f35b60008054906101000a900473ffffffffffffffffffffffffffffffffffffffff1681565b60015481565b60045481565b60086020528060005260406000206000915090505481565b6005805461032190610e96565b80601f016020809104026020016040519081016040528092919081815260200182805461034d90610e96565b801561039a5780601f1061036f5761010080835404028352916020019161039a565b820191906000526020600020905b81548152906001019060200180831161037d57829003601f168201915b505050505081565b60025481565b600680546103b590610e96565b80601f01602080910402602001604051908101604052809291908181526020018280546103e190610e96565b801561042e5780601f106104035761010080835404028352916020019161042e565b820191906000526020600020905b81548152906001019060200180831161041157829003601f168201915b505050505081565b6001546003541061047a576002600760006101000a81548160ff0219169083600281111561046757610466610ef7565b5b021790555061047461098d565b506104b1565b6004544211156104b0576001600760006101000a81548160ff021916908360028111156104aa576104a9610ef7565b5b02179055505b5b42600281905550565b600060018060028111156104d1576104d0610ef7565b5b600760009054906101000a900460ff1660028111156104f3576104f2610ef7565b5b146104fd57600080fd5b6000600860003373ffffffffffffffffffffffffffffffffffffffff1673ffffffffffffffffffffffffffffffffffffffff168152602001908152602001600020541161054957600080fd5b60003390506000600860003373ffffffffffffffffffffffffffffffffffffffff1673ffffffffffffffffffffffffffffffffffffffff1681526020019081526020016000205490506000600860003373ffffffffffffffffffffffffffffffffffffffff1673ffffffffffffffffffffffffffffffffffffffff168152602001908152602001600020819055508173ffffffffffffffffffffffffffffffffffffffff166108fc829081150290604051600060405180830381858888f1935050505061065f5780600860008473ffffffffffffffffffffffffffffffffffffffff1673ffffffffffffffffffffffffffffffffffffffff1681526020019081526020016000208190555060009350505061067a565b8060035461066d9190610d7a565b6003819055506001935050505b5090565b600760009054906101000a900460ff1681565b60035481565b60008060028111156106ac576106ab610ef7565b5b600760009054906101000a900460ff1660028111156106ce576106cd610ef7565b5b146106d857600080fd5b60008054906101000a900473ffffffffffffffffffffffffffffffffffffffff1673ffffffffffffffffffffffffffffffffffffffff163373ffffffffffffffffffffffffffffffffffffffff16141561073157600080fd5b34600860003373ffffffffffffffffffffffffffffffffffffffff1673ffffffffffffffffffffffffffffffffffffffff1681526020019081526020016000205461077c9190610d24565b600860003373ffffffffffffffffffffffffffffffffffffffff1673ffffffffffffffffffffffffffffffffffffffff16815260200190815260200160002081905550346003546107cd9190610d24565b6003819055507f5cdc4ab8d637538ead6cc1904d4160343656c8c82bd266635cfd31ac008fffe0333460035460405161080893929190610c5e565b60405180910390a1610818610436565b50565b600060608060008060008060008054906101000a900473ffffffffffffffffffffffffffffffffffffffff1696506005805461085690610e96565b80601f016020809104026020016040519081016040528092919081815260200182805461088290610e96565b80156108cf5780601f106108a4576101008083540402835291602001916108cf565b820191906000526020600020905b8154815290600101906020018083116108b257829003601f168201915b50505050509550600680546108e390610e96565b80601f016020809104026020016040519081016040528092919081815260200182805461090f90610e96565b801561095c5780601f106109315761010080835404028352916020019161095c565b820191906000526020600020905b81548152906001019060200180831161093f57829003601f168201915b505050505094506004549350600760009054906101000a900460ff1692506003549150600154905090919293949596565b600060028060028111156109a4576109a3610ef7565b5b600760009054906101000a900460ff1660028111156109c6576109c5610ef7565b5b146109d057600080fd5b60006003549050600060038190555060008054906101000a900473ffffffffffffffffffffffffffffffffffffffff1673ffffffffffffffffffffffffffffffffffffffff166108fc829081150290604051600060405180830381858888f1935050505015610a9a577f2f256415efc8561af8db667cb242964b19be7380f379ccdafaa0e54a6f6b706960008054906101000a900473ffffffffffffffffffffffffffffffffffffffff16604051610a889190610bab565b60405180910390a16001925050610ad2565b806003819055506002600760006101000a81548160ff02191690836002811115610ac757610ac6610ef7565b5b021790555060009250505b5090565b600081359050610ae581610f7f565b92915050565b600060208284031215610b0157610b00610f55565b5b6000610b0f84828501610ad6565b91505092915050565b610b2181610e1b565b82525050565b610b3081610dc0565b82525050565b610b3f81610dae565b82525050565b610b4e81610dd2565b82525050565b610b5d81610e2d565b82525050565b6000610b6e82610d08565b610b788185610d13565b9350610b88818560208601610e63565b610b9181610f5a565b840191505092915050565b610ba581610e11565b82525050565b6000602082019050610bc06000830184610b18565b92915050565b6000602082019050610bdb6000830184610b27565b92915050565b600060e082019050610bf6600083018a610b27565b8181036020830152610c088189610b63565b90508181036040830152610c1c8188610b63565b9050610c2b6060830187610b9c565b610c386080830186610b54565b610c4560a0830185610b9c565b610c5260c0830184610b9c565b98975050505050505050565b6000606082019050610c736000830186610b36565b610c806020830185610b9c565b610c8d6040830184610b9c565b949350505050565b6000602082019050610caa6000830184610b45565b92915050565b6000602082019050610cc56000830184610b54565b92915050565b60006020820190508181036000830152610ce58184610b63565b905092915050565b6000602082019050610d026000830184610b9c565b92915050565b600081519050919050565b600082825260208201905092915050565b6000610d2f82610e11565b9150610d3a83610e11565b9250827fffffffffffffffffffffffffffffffffffffffffffffffffffffffffffffffff03821115610d6f57610d6e610ec8565b5b828201905092915050565b6000610d8582610e11565b9150610d9083610e11565b925082821015610da357610da2610ec8565b5b828203905092915050565b6000610db982610df1565b9050919050565b6000610dcb82610df1565b9050919050565b60008115159050919050565b6000819050610dec82610f6b565b919050565b600073ffffffffffffffffffffffffffffffffffffffff82169050919050565b6000819050919050565b6000610e2682610e3f565b9050919050565b6000610e3882610dde565b9050919050565b6000610e4a82610e51565b9050919050565b6000610e5c82610df1565b9050919050565b60005b83811015610e81578082015181840152602081019050610e66565b83811115610e90576000848401525b50505050565b60006002820490506001821680610eae57607f821691505b60208210811415610ec257610ec1610f26565b5b50919050565b7f4e487b7100000000000000000000000000000000000000000000000000000000600052601160045260246000fd5b7f4e487b7100000000000000000000000000000000000000000000000000000000600052602160045260246000fd5b7f4e487b7100000000000000000000000000000000000000000000000000000000600052602260045260246000fd5b600080fd5b6000601f19601f8301169050919050565b60038110610f7c57610f7b610ef7565b5b50565b610f8881610dae565b8114610f9357600080fd5b5056fea264697066735822122049ab208721b241763d8e8b297e29c02a0044191203e749df1626264aafebbde664736f6c63430008060033",
  "immutableReferences": {},
  "source": "// SPDX-License-Identifier: GPL-3.0\r\npragma solidity >=0.7.0 <0.9.0;\r\n\r\ncontract Project {\r\n    enum State {\r\n        Fundraising,\r\n        Expired,\r\n        Successful\r\n    }\r\n\r\n    address payable public creator;\r\n    uint public amountGoal;\r\n    uint public completeAt; //start project\r\n    uint256 public currentBalance;\r\n    uint public raiseBy;    // end time\r\n    string public title;\r\n    string public description;\r\n    State public state = State.Fundraising; \r\n    mapping (address => uint) public contributions;\r\n\r\n    event FundingReceived(address contributor, uint amount, uint currentTotal);\r\n    // Event that will be emitted whenever the project starter has received the funds\r\n    event CreatorPaid(address recipient);\r\n\r\n    // Modifier to check current state\r\n    modifier inState(State _state) {\r\n        require(state == _state);\r\n        _;\r\n    }\r\n\r\n    // Modifier to check if the function caller is the project creator\r\n    modifier isCreator() {\r\n        require(msg.sender == creator);\r\n        _;\r\n    }\r\n\r\n    constructor(address payable projectStarter, string memory projectTitle, string memory projectDesc, uint fundRaisingDeadline, uint goalAmount) payable{\r\n        creator = projectStarter;\r\n        title = projectTitle;\r\n        description = projectDesc;\r\n        amountGoal = goalAmount;\r\n        raiseBy = fundRaisingDeadline;\r\n        completeAt = block.timestamp;\r\n        currentBalance = 0;\r\n    }\r\n\r\n    function contribute() external inState(State.Fundraising) payable {\r\n        require(msg.sender != creator);\r\n        contributions[msg.sender] = contributions[msg.sender]+ msg.value;\r\n        currentBalance = currentBalance + msg.value;\r\n        emit FundingReceived(msg.sender, msg.value, currentBalance);\r\n        checkIfFundingCompleteOrExpired();\r\n    }\r\n\r\n    function checkIfFundingCompleteOrExpired() public {\r\n        if (currentBalance >= amountGoal) {\r\n            state = State.Successful;\r\n            payOut();\r\n        } else if (block.timestamp > raiseBy)  {\r\n            state = State.Expired;\r\n        }\r\n        completeAt = block.timestamp;\r\n    }\r\n\r\n    function payOut() internal inState(State.Successful) returns (bool) {\r\n        uint256 totalRaised = currentBalance;\r\n        currentBalance = 0;\r\n\r\n        if (creator.send(totalRaised)) {\r\n            emit CreatorPaid(creator);\r\n            return true;\r\n        } else {\r\n            currentBalance = totalRaised;\r\n            state = State.Successful;\r\n        }\r\n\r\n        return false;\r\n    }\r\n\r\n    function getRefund() payable public inState(State.Expired) returns (bool){\r\n        require(contributions[msg.sender] > 0);\r\n\r\n        address payable addr = payable(msg.sender);\r\n        uint amountToRefund = contributions[msg.sender];\r\n        contributions[msg.sender] = 0;\r\n\r\n        if (!addr.send(amountToRefund)) {\r\n            contributions[addr] = amountToRefund;\r\n            return false;\r\n        } else {\r\n            currentBalance = currentBalance - amountToRefund;\r\n        }\r\n        return true;\r\n    }\r\n\r\n    function getDetails() public view returns (address payable projectStarter, string memory projectTitle, string memory projectDesc, uint256 deadline, State currentState, uint256 currentAmount, uint256 goalAmount) {\r\n        projectStarter = creator;\r\n        projectTitle = title;\r\n        projectDesc = description;\r\n        deadline = raiseBy;\r\n        currentState = state;\r\n        currentAmount = currentBalance;\r\n        goalAmount = amountGoal;\r\n    }\r\n}\r\n",
  "sourcePath": "D:/Learning/GitProject/SecurityFinalProject/contracts/Project.sol",
  "compiler": {
    "name": "solc",
    "version": "0.8.6+commit.11564f7e.Emscripten.clang"
  },
  "schemaVersion": "3.4.1",
  "updatedAt": "2021-07-04T03:36:57.340Z",
  "networkType": "ethereum",
  "devdoc": {
    "kind": "dev",
    "methods": {},
    "version": 1
  },
  "userdoc": {
    "kind": "user",
    "methods": {},
    "version": 1
  }
}